:100000000C943E000C945D000C945B000C945B001F
:100010000C945B000C945B000C945B000C945B00F4
:100020000C945B000C945B000C945B000C945B00E4
:100030000C945B000C945B000C94F7000C945B0038
:100040000C945B000C945B000C9423020C94E20172
:100050000C945B000C945B000C945B000C945B00B4
:100060000C945B000C945B003C01410143014A018C
:100070004D01520156015A016201680111241FBE4F
:10008000CFEFD8E0DEBFCDBF11E0A0E0B1E0E0ED02
:10009000F5E002C005900D92AC30B107D9F721E030
:1000A000ACE0B1E001C01D92A534B207E1F70E94B7
:1000B00045020C94E6020C9400001F920F920FB6BA
:1000C0000F9211242F933F934F935F936F937F93DE
:1000D0008F939F93AF93BF93EF93FF932FEF8AE696
:1000E00093E0215080409040E1F700C000004A9921
:1000F00007C081E00E94980195B180E1892785B908
:10010000FF91EF91BF91AF919F918F917F916F91EF
:100110005F914F913F912F910F900FBE0F901F90C5
:1001200018950C94B700843118F45B985C9A04C05D
:10013000863220F45B9A5C985D9808955B985C9891
:100140005D9A08955B985D985C9808950E94AA0056
:100150000C94A200EEE6F0E080818D7F80832998E8
:1001600028982A9841984598429844980895EEE630
:10017000F0E08081826080830895219A209A229AFB
:10018000399A3D9A3A9A3C9A3B9A239A569A3F9AC0
:10019000389A84B5826084BD85B5856085BD86E268
:1001A00087BDEEE6F0E080818260808308959C0147
:1001B00068EE73E00E948C0260930E01E4E6F0E0CA
:1001C000BF010E948C0260930F01C901BF010E9410
:1001D0008C02EAE0F0E0BF010E948C026093100103
:1001E000C901BF010E948C0280930D0108951F92E6
:1001F0000F920FB60F9211248F939F93AF93BF93DB
:10020000EF93FF9380910001853019F481E0809392
:10021000000180910001813039F42B9A5E985F983B
:10022000409880910E011AC0823039F42B985E9A62
:100230005F98409880910F0111C0833039F42B985A
:100240005E985F9A40988091100108C0843041F414
:100250002B985E985F98409A80910D0180930C01D5
:10026000E0910C018E2F90E08A309105C0F5FC01E1
:10027000EC5CFF4F0C94A002299A289A2A9A419884
:1002800025C0299818C0299A28982A9A419A459AEF
:10029000429824C0299A28981DC02998289A2A9AF9
:1002A000419A0CC0299A289A2A9815C0299A289A06
:1002B0002A980BC0299A28982A9A41984598429AD8
:1002C00044980DC0299A289A2A9A419A459A05C0BD
:1002D000299A289A2A9A419A4598429A449A809152
:1002E00000018F5F80930001FF91EF91BF91AF916B
:1002F0009F918F910F900FBE0F901F901895909324
:10030000C5008093C40088E98093C1008EE080938B
:10031000C20008959091C00095FFFCCF8093C60065
:1003200008958091C00087FFFCCF8091C60008959A
:10033000909111019F5F9F70209112019217E1F33C
:10034000E92FF0E0ED5EFE4F8083909311018091E4
:10035000C10080628093C1000895CF93DF93EC01C8
:100360008991882319F00E949801FACFDF91CF91EB
:100370000895CF93DF93EC018991882319F00E94AF
:100380008A01FACFDF91CF910895CF93DF93CDB754
:10039000DEB761970FB6F894DEBF0FBECDBFAB01DD
:1003A000BE016F5F7F4F0E94A602CE0101960E94A0
:1003B000AD0161960FB6F894DEBF0FBECDBFDF91E1
:1003C000CF9108951F920F920FB60F9211248F9321
:1003D0009F93EF93FF9390911101809112019817D1
:1003E00079F0809112018F5F8F7080931201E091FC
:1003F0001201F0E0ED5EFE4F80818093C60005C0E3
:100400008091C1008F7D8093C100FF91EF919F91FA
:100410008F910F900FBE0F901F9018959091230110
:1004200080912401981769F0809124018F5F8F716A
:1004300080932401E0912401F0E0EB5DFE4F808188
:10044000089580E008951F920F920FB60F92112425
:100450008F939F93EF93FF938091C600E0912301C8
:10046000EF5FEF7190912401E91731F0E0932301E0
:10047000F0E0EB5DFE4F8083FF91EF919F918F91B4
:100480000F900FBE0F901F901895249A2C9A87E614
:1004900090E00E947F010E94BD0080E090E00E94F9
:1004A000D70078942FEF83ED90E321508040904067
:1004B000E1F700C00000559A549A539A5B985C98F3
:1004C0005D9852985A9AE89A809169008260809368
:1004D00069000E94A6000E940E028836E1F7E898A3
:1004E0000E940E02C82F8823D9F390E00E94D70003
:1004F0008C2F0E9493000E940E028823E1F3E89A59
:100500000E94B7002FEF87EA91E62150804090408B
:10051000E1F700C00000DDCFAA1BBB1B51E107C003
:10052000AA1FBB1FA617B70710F0A61BB70B881F83
:10053000991F5A95A9F780959095BC01CD01089512
:10054000EE0FFF1F0590F491E02D099445325105FF
:1005500020F4423010F00C94B102FB011082CB0168
:100560000895BB274A3031F4992322F4BDE29095D7
:1005700081959F4F0C94BD02BB27FB015527AA27ED
:10058000880F991FAA1FA41710F0A41B8395505120
:10059000B9F7A05DAA3308F0A95DA193009779F798
:1005A000B111B1931192CB010C94D602DC01FC0184
:1005B000672F71917723E1F7329704C07C916D9397
:1005C00070836291AE17BF07C8F30895F894FFCF08
:0C05D0000177245D6D2E6B7B257F6F0092
:00000001FF
