:100000000C943E000C9484000C945B000C945B00F8
:100010000C945B000C945B000C945B000C945B00F4
:100020000C945B000C945B000C945B000C945B00E4
:100030000C945B000C945B000C9411010C945B001D
:100040000C945B000C945B000C943D020C94FC013E
:100050000C945B000C945B000C945B000C945B00B4
:100060000C945B000C945B0056015B015D01640124
:1000700067016C01700174017C01820111241FBEB3
:10008000CFEFD8E0DEBFCDBF11E0A0E0B1E0EAE005
:10009000F6E002C005900D92AC30B107D9F721E02F
:1000A000ACE0B1E001C01D92A534B207E1F70E94B7
:1000B0005F020C9403030C9400000C94D10089316E
:1000C00018F45B985C9A04C0823320F45B9A5C98C5
:1000D0005D9808955B985C985D9A08955B985D982B
:1000E0005C9808950E94C4000C946E002C9A181617
:1000F000190644F4EFE9FFE03197F1F700C0000082
:100100000197F5CF2C9808951F920F920FB60F927A
:1001100011242F933F934F935F936F937F938F930C
:100120009F93AF93BF93EF93FF93E8982FEF8AE6E7
:1001300093E0215080409040E1F700C000004A99D0
:1001400011C081E00E94B20182E390E00E9476003B
:100150002FEF83EC99E0215080409040E1F700C000
:10016000000001C0E89AFF91EF91BF91AF919F917C
:100170008F917F916F915F914F913F912F910F9050
:100180000FBE0F901F901895EEE6F0E080818D7FF6
:100190008083299828982A984198459842984498AD
:1001A0000895EEE6F0E08081826080830895219AD0
:1001B000209A229A399A3D9A3A9A3C9A3B9A239AE3
:1001C000569A3F9A389A84B5826084BD85B5856019
:1001D00085BD86E287BDEEE6F0E0808182608083A7
:1001E00008959C0168EE73E00E94A90260930E01DD
:1001F000E4E6F0E0BF010E94A90260930F01C9018B
:10020000BF010E94A902EAE0F0E0BF010E94A9023A
:1002100060931001C901BF010E94A90280930D01E2
:1002200008951F920F920FB60F9211248F939F93F0
:10023000AF93BF93EF93FF9380910001853019F442
:1002400081E08093000180910001813039F42B9A84
:100250005E985F98409880910E011AC0823039F400
:100260002B985E9A5F98409880910F0111C083305F
:1002700039F42B985E985F9A40988091100108C0DD
:10028000843041F42B985E985F98409A80910D01DC
:1002900080930C01E0910C018E2F90E08A30910543
:1002A000C0F5FC01EC5CFF4F0C94BD02299A289A22
:1002B0002A9A419825C0299818C0299A28982A9ADC
:1002C000419A459A429824C0299A28981DC0299895
:1002D000289A2A9A419A0CC0299A289A2A9815C0D5
:1002E000299A289A2A980BC0299A28982A9A4198DC
:1002F0004598429A44980DC0299A289A2A9A419A78
:10030000459A05C0299A289A2A9A419A4598429A6C
:10031000449A809100018F5F80930001FF91EF91DB
:10032000BF91AF919F918F910F900FBE0F901F9033
:1003300018959093C5008093C40088E98093C1000C
:100340008EE08093C20008959091C00095FFFCCF8D
:100350008093C60008958091C00087FFFCCF8091F4
:10036000C6000895909111019F5F9F702091120126
:100370009217E1F3E92FF0E0ED5EFE4F808390935A
:1003800011018091C10080628093C1000895CF93D4
:10039000DF93EC018991882319F00E94B201FACF12
:1003A000DF91CF910895CF93DF93EC01899188235A
:1003B00019F00E94A401FACFDF91CF910895CF9355
:1003C000DF93CDB7DEB761970FB6F894DEBF0FBEEF
:1003D000CDBFAB01BE016F5F7F4F0E94C302CE0154
:1003E00001960E94C70161960FB6F894DEBF0FBE5A
:1003F000CDBFDF91CF9108951F920F920FB60F924C
:1004000011248F939F93EF93FF939091110180910B
:100410001201981779F0809112018F5F8F7080938D
:100420001201E0911201F0E0ED5EFE4F80818093B9
:10043000C60005C08091C1008F7D8093C100FF91EF
:10044000EF919F918F910F900FBE0F901F90189575
:100450009091230180912401981769F080912401E3
:100460008F5F8F7180932401E0912401F0E0EB5DB8
:10047000FE4F8081089580E008951F920F920FB67D
:100480000F9211248F939F93EF93FF938091C60057
:10049000E0912301EF5FEF7190912401E91731F0B2
:1004A000E0932301F0E0EB5DFE4F8083FF91EF913D
:1004B0009F918F910F900FBE0F901F901895249AC7
:1004C0002C9A87E690E00E9499010E94D70080E074
:1004D00090E00E94F10078942FEF83ED90E321509B
:1004E00080409040E1F700C00000559A549A539A1A
:1004F0005B985C985D9852985A9AE89A8091690046
:100500008260809369000E9472000E9428028836EF
:10051000E1F7E8980E942802C82F8823D9F390E0D9
:100520000E94F1008C2F0E945F000E942802882305
:10053000E1F3E89A0E94D1002FEF8BE792E9215076
:1005400080409040E1F700C000000E947200E89AED
:10055000DCCFAA1BBB1B51E107C0AA1FBB1FA617FC
:10056000B70710F0A61BB70B881F991F5A95A9F75C
:1005700080959095BC01CD010895EE0FFF1F059069
:10058000F491E02D09944532510520F4423010F0E9
:100590000C94CE02FB011082CB010895BB274A3098
:1005A00031F4992322F4BDE2909581959F4F0C94EC
:1005B000DA02BB27FB015527AA27880F991FAA1F1C
:1005C000A41710F0A41B83955051B9F7A05DAA336E
:1005D00008F0A95DA193009779F7B111B193119239
:1005E000CB010C94F302DC01FC01672F719177239E
:1005F000E1F7329704C07C916D9370836291AE17DE
:0A060000BF07C8F30895F894FFCF78
:0C060A000177245D6D2E6B7B257F6F0057
:00000001FF
