:1000000012C02AC029C09BC027C026C025C072C10B
:1000100035C122C021C020C01FC058C01DC01CC097
:100020001BC01AC019C011241FBECFEDCDBF10E0F8
:10003000A0E6B0E0E2E8F4E002C005900D92A2363E
:10004000B107D9F720E0A2E6B0E001C01D92A13AC5
:10005000B207E1F770D113C2D3CFCF93C82F88E690
:10006000D3D08C2FD1D084E7CF91CEC0959A8FE793
:100070009BEB0197F1F700C0000095980895CF938E
:10008000DF931092670010926600C3E0D0E046D084
:1000900090936500809364008CE090E0E7DF20910E
:1000A0006600309167008091640090916500820F36
:1000B000931F9093670080936600219741F763E058
:1000C00070E06AD1862FDF91CF9108951F920F9231
:1000D0000FB60F9211248F939F938091620090919D
:1000E0006300809162009091630001979093630098
:1000F000809362009F918F910F900FBE0F901F9081
:100100001895B898B89AC0988EB580648EBD8EB593
:1001100082608EBD89B7886089BF089510926C0097
:10012000C09A85E38A95F1F70000C09880916C0031
:100130008823E1F380916A0090916B0008951F92EB
:100140000F920FB60F9211242F933F934F935F930B
:100150006F937F938F939F93AF93BF93EF93FF938F
:100160009EB580E489278EBD80916000813041F486
:1001700084B595B5909369008093680082E022C0B1
:1001800064B575B58091680090916900681B790B22
:10019000CB01A0E0B0E0BC01CD01969587957795A5
:1001A000679522E230E040E050E0DDD020ED37E01E
:1001B00040E050E005D130936B0020936A0081E06D
:1001C00080936C0080936000FF91EF91BF91AF919D
:1001D0009F918F917F916F915F914F913F912F915F
:1001E0000F900FBE0F901F90189592B989B988E9AA
:1001F0008AB98EE083B908955D9BFECF8CB90895CE
:100200005F9BFECF8CB1089590916D009F5F9F70B2
:1002100020916E009217E1F3E92FF0E0E159FF4FD2
:10022000808390936D00559A0895CF93DF93EC01EE
:100230008991882311F0E8DFFBCFDF91CF910895FA
:10024000CF93DF93EC018991882311F0D5DFFBCFA9
:10025000DF91CF910895CF93DF93CDB7DD27C151C3
:10026000CDBFAB01BE016F5F7F4FCCD0CE010196F9
:10027000DCDFCF5ECDBFDF91CF9108951F920F924B
:100280000FB60F9211248F939F93EF93FF9390914A
:100290006D0080916E00981771F080916E008F5FF5
:1002A0008F7080936E00E0916E00F0E0E159FF4F97
:1002B00080818CB901C05598FF91EF919F918F91EA
:1002C0000F900FBE0F901F90189590917F00809116
:1002D0008000981769F0809180008F5F8F71809304
:1002E0008000E0918000F0E0EF57FF4F808108959B
:1002F00080E008951F920F920FB60F9211248F93F2
:100300009F93EF93FF938CB1E0917F00EF5FEF71CC
:1003100090918000E91731F0E0937F00F0E0EF5713
:10032000FF4F8083FF91EF919F918F910F900FBEB0
:100330000F901F90189587E690E057DFE2DE7894E3
:100340008D9A959A80B7826080BF83B7836083BFA0
:1003500089B7816089BF8AEF86BFB7DF8130E9F74F
:100360008EDE7BDEFACFEE27FF27AA27BB2708C049
:10037000A20FB31FE41FF51F220F331F441F551F89
:10038000969587957795679598F37040A9F70097AC
:1003900099F7BD01CF010895AA1BBB1B51E107C00E
:1003A000AA1FBB1FA617B70710F0A61BB70B881F05
:1003B000991F5A95A9F780959095BC01CD01089594
:1003C000A1E21A2EAA1BBB1BFD010DC0AA1FBB1F59
:1003D000EE1FFF1FA217B307E407F50720F0A21BCB
:1003E000B30BE40BF50B661F771F881F991F1A9438
:1003F00069F760957095809590959B01AC01BD0162
:10040000CF0108954532510518F4423008F004C078
:10041000FB011082CB010895BB274A3031F49923A8
:1004200022F4BDE2909581959F4F01C0BB27FB014F
:100430005527AA27880F991FAA1FA41710F0A41BDD
:1004400083955051B9F7A05DAA3308F0A95DA19337
:10045000009779F7B111B1931192CB0100C0DC0183
:10046000FC01672F71917723E1F7329704C07C91EB
:100470006D9370836291AE17BF07C8F30895F89427
:02048000FFCFAC
:02048200010077
:00000001FF
